{
	"contracts/PetAccount.sol": {
		"PetAccount": {
			"abi": [
				{
					"inputs": [
						{
							"internalType": "address",
							"name": "newSigner",
							"type": "address"
						}
					],
					"name": "addSigner",
					"outputs": [],
					"stateMutability": "nonpayable",
					"type": "function"
				},
				{
					"inputs": [
						{
							"internalType": "address",
							"name": "to",
							"type": "address"
						},
						{
							"internalType": "uint256",
							"name": "value",
							"type": "uint256"
						},
						{
							"internalType": "bytes",
							"name": "data",
							"type": "bytes"
						}
					],
					"name": "execute",
					"outputs": [],
					"stateMutability": "nonpayable",
					"type": "function"
				},
				{
					"inputs": [
						{
							"internalType": "address",
							"name": "signer",
							"type": "address"
						}
					],
					"name": "removeSigner",
					"outputs": [],
					"stateMutability": "nonpayable",
					"type": "function"
				},
				{
					"inputs": [
						{
							"internalType": "address",
							"name": "",
							"type": "address"
						}
					],
					"name": "signers",
					"outputs": [
						{
							"internalType": "bool",
							"name": "",
							"type": "bool"
						}
					],
					"stateMutability": "view",
					"type": "function"
				}
			],
			"devdoc": {
				"kind": "dev",
				"methods": {},
				"version": 1
			},
			"evm": {
				"assembly": "    /* \"contracts/PetAccount.sol\":58:646  contract PetAccount {... */\n  mstore(0x40, 0x80)\n  callvalue\n  dup1\n  iszero\n  tag_1\n  jumpi\n  revert(0x00, 0x00)\ntag_1:\n  pop\n  dataSize(sub_0)\n  dup1\n  dataOffset(sub_0)\n  0x00\n  codecopy\n  0x00\n  return\nstop\n\nsub_0: assembly {\n        /* \"contracts/PetAccount.sol\":58:646  contract PetAccount {... */\n      mstore(0x40, 0x80)\n      callvalue\n      dup1\n      iszero\n      tag_1\n      jumpi\n      revert(0x00, 0x00)\n    tag_1:\n      pop\n      jumpi(tag_2, lt(calldatasize, 0x04))\n      shr(0xe0, calldataload(0x00))\n      dup1\n      0x0e316ab7\n      eq\n      tag_3\n      jumpi\n      dup1\n      0x736c0d5b\n      eq\n      tag_4\n      jumpi\n      dup1\n      0xb61d27f6\n      eq\n      tag_5\n      jumpi\n      dup1\n      0xeb12d61e\n      eq\n      tag_6\n      jumpi\n    tag_2:\n      revert(0x00, 0x00)\n        /* \"contracts/PetAccount.sol\":338:436  function removeSigner(address signer) external onlySigner {... */\n    tag_3:\n      tag_7\n      0x04\n      dup1\n      calldatasize\n      sub\n      dup2\n      add\n      swap1\n      tag_8\n      swap2\n      swap1\n      tag_9\n      jump\t// in\n    tag_8:\n      tag_10\n      jump\t// in\n    tag_7:\n      stop\n        /* \"contracts/PetAccount.sol\":84:123  mapping(address => bool) public signers */\n    tag_4:\n      tag_11\n      0x04\n      dup1\n      calldatasize\n      sub\n      dup2\n      add\n      swap1\n      tag_12\n      swap2\n      swap1\n      tag_9\n      jump\t// in\n    tag_12:\n      tag_13\n      jump\t// in\n    tag_11:\n      mload(0x40)\n      tag_14\n      swap2\n      swap1\n      tag_15\n      jump\t// in\n    tag_14:\n      mload(0x40)\n      dup1\n      swap2\n      sub\n      swap1\n      return\n        /* \"contracts/PetAccount.sol\":442:644  function execute(... */\n    tag_5:\n      tag_16\n      0x04\n      dup1\n      calldatasize\n      sub\n      dup2\n      add\n      swap1\n      tag_17\n      swap2\n      swap1\n      tag_18\n      jump\t// in\n    tag_17:\n      tag_19\n      jump\t// in\n    tag_16:\n      stop\n        /* \"contracts/PetAccount.sol\":232:332  function addSigner(address newSigner) external onlySigner {... */\n    tag_6:\n      tag_20\n      0x04\n      dup1\n      calldatasize\n      sub\n      dup2\n      add\n      swap1\n      tag_21\n      swap2\n      swap1\n      tag_9\n      jump\t// in\n    tag_21:\n      tag_22\n      jump\t// in\n    tag_20:\n      stop\n        /* \"contracts/PetAccount.sol\":338:436  function removeSigner(address signer) external onlySigner {... */\n    tag_10:\n        /* \"contracts/PetAccount.sol\":170:177  signers */\n      0x00\n        /* \"contracts/PetAccount.sol\":170:189  signers[msg.sender] */\n      0x00\n        /* \"contracts/PetAccount.sol\":178:188  msg.sender */\n      caller\n        /* \"contracts/PetAccount.sol\":170:189  signers[msg.sender] */\n      0xffffffffffffffffffffffffffffffffffffffff\n      and\n      0xffffffffffffffffffffffffffffffffffffffff\n      and\n      dup2\n      mstore\n      0x20\n      add\n      swap1\n      dup2\n      mstore\n      0x20\n      add\n      0x00\n      keccak256\n      0x00\n      swap1\n      sload\n      swap1\n      0x0100\n      exp\n      swap1\n      div\n      0xff\n      and\n        /* \"contracts/PetAccount.sol\":162:208  require(signers[msg.sender], \"Not authorized\") */\n      tag_24\n      jumpi\n      mload(0x40)\n      0x08c379a000000000000000000000000000000000000000000000000000000000\n      dup2\n      mstore\n      0x04\n      add\n      tag_25\n      swap1\n      tag_26\n      jump\t// in\n    tag_25:\n      mload(0x40)\n      dup1\n      swap2\n      sub\n      swap1\n      revert\n    tag_24:\n        /* \"contracts/PetAccount.sol\":424:429  false */\n      0x00\n        /* \"contracts/PetAccount.sol\":406:413  signers */\n      0x00\n        /* \"contracts/PetAccount.sol\":406:421  signers[signer] */\n      0x00\n        /* \"contracts/PetAccount.sol\":414:420  signer */\n      dup4\n        /* \"contracts/PetAccount.sol\":406:421  signers[signer] */\n      0xffffffffffffffffffffffffffffffffffffffff\n      and\n      0xffffffffffffffffffffffffffffffffffffffff\n      and\n      dup2\n      mstore\n      0x20\n      add\n      swap1\n      dup2\n      mstore\n      0x20\n      add\n      0x00\n      keccak256\n      0x00\n        /* \"contracts/PetAccount.sol\":406:429  signers[signer] = false */\n      0x0100\n      exp\n      dup2\n      sload\n      dup2\n      0xff\n      mul\n      not\n      and\n      swap1\n      dup4\n      iszero\n      iszero\n      mul\n      or\n      swap1\n      sstore\n      pop\n        /* \"contracts/PetAccount.sol\":338:436  function removeSigner(address signer) external onlySigner {... */\n      pop\n      jump\t// out\n        /* \"contracts/PetAccount.sol\":84:123  mapping(address => bool) public signers */\n    tag_13:\n      mstore(0x20, 0x00)\n      dup1\n      0x00\n      mstore\n      keccak256(0x00, 0x40)\n      0x00\n      swap2\n      pop\n      sload\n      swap1\n      0x0100\n      exp\n      swap1\n      div\n      0xff\n      and\n      dup2\n      jump\t// out\n        /* \"contracts/PetAccount.sol\":442:644  function execute(... */\n    tag_19:\n        /* \"contracts/PetAccount.sol\":170:177  signers */\n      0x00\n        /* \"contracts/PetAccount.sol\":170:189  signers[msg.sender] */\n      0x00\n        /* \"contracts/PetAccount.sol\":178:188  msg.sender */\n      caller\n        /* \"contracts/PetAccount.sol\":170:189  signers[msg.sender] */\n      0xffffffffffffffffffffffffffffffffffffffff\n      and\n      0xffffffffffffffffffffffffffffffffffffffff\n      and\n      dup2\n      mstore\n      0x20\n      add\n      swap1\n      dup2\n      mstore\n      0x20\n      add\n      0x00\n      keccak256\n      0x00\n      swap1\n      sload\n      swap1\n      0x0100\n      exp\n      swap1\n      div\n      0xff\n      and\n        /* \"contracts/PetAccount.sol\":162:208  require(signers[msg.sender], \"Not authorized\") */\n      tag_29\n      jumpi\n      mload(0x40)\n      0x08c379a000000000000000000000000000000000000000000000000000000000\n      dup2\n      mstore\n      0x04\n      add\n      tag_30\n      swap1\n      tag_26\n      jump\t// in\n    tag_30:\n      mload(0x40)\n      dup1\n      swap2\n      sub\n      swap1\n      revert\n    tag_29:\n        /* \"contracts/PetAccount.sol\":568:580  bool success */\n      0x00\n        /* \"contracts/PetAccount.sol\":585:587  to */\n      dup5\n        /* \"contracts/PetAccount.sol\":585:592  to.call */\n      0xffffffffffffffffffffffffffffffffffffffff\n      and\n        /* \"contracts/PetAccount.sol\":599:604  value */\n      dup5\n        /* \"contracts/PetAccount.sol\":606:610  data */\n      dup5\n      dup5\n        /* \"contracts/PetAccount.sol\":585:611  to.call{value:value}(data) */\n      mload(0x40)\n      tag_32\n      swap3\n      swap2\n      swap1\n      tag_33\n      jump\t// in\n    tag_32:\n      0x00\n      mload(0x40)\n      dup1\n      dup4\n      sub\n      dup2\n      dup6\n      dup8\n      gas\n      call\n      swap3\n      pop\n      pop\n      pop\n      returndatasize\n      dup1\n      0x00\n      dup2\n      eq\n      tag_36\n      jumpi\n      mload(0x40)\n      swap2\n      pop\n      and(add(returndatasize, 0x3f), not(0x1f))\n      dup3\n      add\n      0x40\n      mstore\n      returndatasize\n      dup3\n      mstore\n      returndatasize\n      0x00\n      0x20\n      dup5\n      add\n      returndatacopy\n      jump(tag_35)\n    tag_36:\n      0x60\n      swap2\n      pop\n    tag_35:\n      pop\n        /* \"contracts/PetAccount.sol\":567:611  (bool success,) = to.call{value:value}(data) */\n      pop\n      swap1\n      pop\n        /* \"contracts/PetAccount.sol\":629:636  success */\n      dup1\n        /* \"contracts/PetAccount.sol\":621:637  require(success) */\n      tag_37\n      jumpi\n      revert(0x00, 0x00)\n    tag_37:\n        /* \"contracts/PetAccount.sol\":557:644  {... */\n      pop\n        /* \"contracts/PetAccount.sol\":442:644  function execute(... */\n      pop\n      pop\n      pop\n      pop\n      jump\t// out\n        /* \"contracts/PetAccount.sol\":232:332  function addSigner(address newSigner) external onlySigner {... */\n    tag_22:\n        /* \"contracts/PetAccount.sol\":170:177  signers */\n      0x00\n        /* \"contracts/PetAccount.sol\":170:189  signers[msg.sender] */\n      0x00\n        /* \"contracts/PetAccount.sol\":178:188  msg.sender */\n      caller\n        /* \"contracts/PetAccount.sol\":170:189  signers[msg.sender] */\n      0xffffffffffffffffffffffffffffffffffffffff\n      and\n      0xffffffffffffffffffffffffffffffffffffffff\n      and\n      dup2\n      mstore\n      0x20\n      add\n      swap1\n      dup2\n      mstore\n      0x20\n      add\n      0x00\n      keccak256\n      0x00\n      swap1\n      sload\n      swap1\n      0x0100\n      exp\n      swap1\n      div\n      0xff\n      and\n        /* \"contracts/PetAccount.sol\":162:208  require(signers[msg.sender], \"Not authorized\") */\n      tag_39\n      jumpi\n      mload(0x40)\n      0x08c379a000000000000000000000000000000000000000000000000000000000\n      dup2\n      mstore\n      0x04\n      add\n      tag_40\n      swap1\n      tag_26\n      jump\t// in\n    tag_40:\n      mload(0x40)\n      dup1\n      swap2\n      sub\n      swap1\n      revert\n    tag_39:\n        /* \"contracts/PetAccount.sol\":321:325  true */\n      0x01\n        /* \"contracts/PetAccount.sol\":300:307  signers */\n      0x00\n        /* \"contracts/PetAccount.sol\":300:318  signers[newSigner] */\n      0x00\n        /* \"contracts/PetAccount.sol\":308:317  newSigner */\n      dup4\n        /* \"contracts/PetAccount.sol\":300:318  signers[newSigner] */\n      0xffffffffffffffffffffffffffffffffffffffff\n      and\n      0xffffffffffffffffffffffffffffffffffffffff\n      and\n      dup2\n      mstore\n      0x20\n      add\n      swap1\n      dup2\n      mstore\n      0x20\n      add\n      0x00\n      keccak256\n      0x00\n        /* \"contracts/PetAccount.sol\":300:325  signers[newSigner] = true */\n      0x0100\n      exp\n      dup2\n      sload\n      dup2\n      0xff\n      mul\n      not\n      and\n      swap1\n      dup4\n      iszero\n      iszero\n      mul\n      or\n      swap1\n      sstore\n      pop\n        /* \"contracts/PetAccount.sol\":232:332  function addSigner(address newSigner) external onlySigner {... */\n      pop\n      jump\t// out\n        /* \"#utility.yul\":88:205   */\n    tag_43:\n        /* \"#utility.yul\":197:198   */\n      0x00\n        /* \"#utility.yul\":194:195   */\n      0x00\n        /* \"#utility.yul\":187:199   */\n      revert\n        /* \"#utility.yul\":211:328   */\n    tag_44:\n        /* \"#utility.yul\":320:321   */\n      0x00\n        /* \"#utility.yul\":317:318   */\n      0x00\n        /* \"#utility.yul\":310:322   */\n      revert\n        /* \"#utility.yul\":334:460   */\n    tag_45:\n        /* \"#utility.yul\":371:378   */\n      0x00\n        /* \"#utility.yul\":411:453   */\n      0xffffffffffffffffffffffffffffffffffffffff\n        /* \"#utility.yul\":404:409   */\n      dup3\n        /* \"#utility.yul\":400:454   */\n      and\n        /* \"#utility.yul\":389:454   */\n      swap1\n      pop\n        /* \"#utility.yul\":334:460   */\n      swap2\n      swap1\n      pop\n      jump\t// out\n        /* \"#utility.yul\":466:562   */\n    tag_46:\n        /* \"#utility.yul\":503:510   */\n      0x00\n        /* \"#utility.yul\":532:556   */\n      tag_70\n        /* \"#utility.yul\":550:555   */\n      dup3\n        /* \"#utility.yul\":532:556   */\n      tag_45\n      jump\t// in\n    tag_70:\n        /* \"#utility.yul\":521:556   */\n      swap1\n      pop\n        /* \"#utility.yul\":466:562   */\n      swap2\n      swap1\n      pop\n      jump\t// out\n        /* \"#utility.yul\":568:690   */\n    tag_47:\n        /* \"#utility.yul\":641:665   */\n      tag_72\n        /* \"#utility.yul\":659:664   */\n      dup2\n        /* \"#utility.yul\":641:665   */\n      tag_46\n      jump\t// in\n    tag_72:\n        /* \"#utility.yul\":634:639   */\n      dup2\n        /* \"#utility.yul\":631:666   */\n      eq\n        /* \"#utility.yul\":621:684   */\n      tag_73\n      jumpi\n        /* \"#utility.yul\":680:681   */\n      0x00\n        /* \"#utility.yul\":677:678   */\n      0x00\n        /* \"#utility.yul\":670:682   */\n      revert\n        /* \"#utility.yul\":621:684   */\n    tag_73:\n        /* \"#utility.yul\":568:690   */\n      pop\n      jump\t// out\n        /* \"#utility.yul\":696:835   */\n    tag_48:\n        /* \"#utility.yul\":742:747   */\n      0x00\n        /* \"#utility.yul\":780:786   */\n      dup2\n        /* \"#utility.yul\":767:787   */\n      calldataload\n        /* \"#utility.yul\":758:787   */\n      swap1\n      pop\n        /* \"#utility.yul\":796:829   */\n      tag_75\n        /* \"#utility.yul\":823:828   */\n      dup2\n        /* \"#utility.yul\":796:829   */\n      tag_47\n      jump\t// in\n    tag_75:\n        /* \"#utility.yul\":696:835   */\n      swap3\n      swap2\n      pop\n      pop\n      jump\t// out\n        /* \"#utility.yul\":841:1170   */\n    tag_9:\n        /* \"#utility.yul\":900:906   */\n      0x00\n        /* \"#utility.yul\":949:951   */\n      0x20\n        /* \"#utility.yul\":937:946   */\n      dup3\n        /* \"#utility.yul\":928:935   */\n      dup5\n        /* \"#utility.yul\":924:947   */\n      sub\n        /* \"#utility.yul\":920:952   */\n      slt\n        /* \"#utility.yul\":917:1036   */\n      iszero\n      tag_77\n      jumpi\n        /* \"#utility.yul\":955:1034   */\n      tag_78\n      tag_43\n      jump\t// in\n    tag_78:\n        /* \"#utility.yul\":917:1036   */\n    tag_77:\n        /* \"#utility.yul\":1075:1076   */\n      0x00\n        /* \"#utility.yul\":1100:1153   */\n      tag_79\n        /* \"#utility.yul\":1145:1152   */\n      dup5\n        /* \"#utility.yul\":1136:1142   */\n      dup3\n        /* \"#utility.yul\":1125:1134   */\n      dup6\n        /* \"#utility.yul\":1121:1143   */\n      add\n        /* \"#utility.yul\":1100:1153   */\n      tag_48\n      jump\t// in\n    tag_79:\n        /* \"#utility.yul\":1090:1153   */\n      swap2\n      pop\n        /* \"#utility.yul\":1046:1163   */\n      pop\n        /* \"#utility.yul\":841:1170   */\n      swap3\n      swap2\n      pop\n      pop\n      jump\t// out\n        /* \"#utility.yul\":1176:1266   */\n    tag_49:\n        /* \"#utility.yul\":1210:1217   */\n      0x00\n        /* \"#utility.yul\":1253:1258   */\n      dup2\n        /* \"#utility.yul\":1246:1259   */\n      iszero\n        /* \"#utility.yul\":1239:1260   */\n      iszero\n        /* \"#utility.yul\":1228:1260   */\n      swap1\n      pop\n        /* \"#utility.yul\":1176:1266   */\n      swap2\n      swap1\n      pop\n      jump\t// out\n        /* \"#utility.yul\":1272:1381   */\n    tag_50:\n        /* \"#utility.yul\":1353:1374   */\n      tag_82\n        /* \"#utility.yul\":1368:1373   */\n      dup2\n        /* \"#utility.yul\":1353:1374   */\n      tag_49\n      jump\t// in\n    tag_82:\n        /* \"#utility.yul\":1348:1351   */\n      dup3\n        /* \"#utility.yul\":1341:1375   */\n      mstore\n        /* \"#utility.yul\":1272:1381   */\n      pop\n      pop\n      jump\t// out\n        /* \"#utility.yul\":1387:1597   */\n    tag_15:\n        /* \"#utility.yul\":1474:1478   */\n      0x00\n        /* \"#utility.yul\":1512:1514   */\n      0x20\n        /* \"#utility.yul\":1501:1510   */\n      dup3\n        /* \"#utility.yul\":1497:1515   */\n      add\n        /* \"#utility.yul\":1489:1515   */\n      swap1\n      pop\n        /* \"#utility.yul\":1525:1590   */\n      tag_84\n        /* \"#utility.yul\":1587:1588   */\n      0x00\n        /* \"#utility.yul\":1576:1585   */\n      dup4\n        /* \"#utility.yul\":1572:1589   */\n      add\n        /* \"#utility.yul\":1563:1569   */\n      dup5\n        /* \"#utility.yul\":1525:1590   */\n      tag_50\n      jump\t// in\n    tag_84:\n        /* \"#utility.yul\":1387:1597   */\n      swap3\n      swap2\n      pop\n      pop\n      jump\t// out\n        /* \"#utility.yul\":1603:1680   */\n    tag_51:\n        /* \"#utility.yul\":1640:1647   */\n      0x00\n        /* \"#utility.yul\":1669:1674   */\n      dup2\n        /* \"#utility.yul\":1658:1674   */\n      swap1\n      pop\n        /* \"#utility.yul\":1603:1680   */\n      swap2\n      swap1\n      pop\n      jump\t// out\n        /* \"#utility.yul\":1686:1808   */\n    tag_52:\n        /* \"#utility.yul\":1759:1783   */\n      tag_87\n        /* \"#utility.yul\":1777:1782   */\n      dup2\n        /* \"#utility.yul\":1759:1783   */\n      tag_51\n      jump\t// in\n    tag_87:\n        /* \"#utility.yul\":1752:1757   */\n      dup2\n        /* \"#utility.yul\":1749:1784   */\n      eq\n        /* \"#utility.yul\":1739:1802   */\n      tag_88\n      jumpi\n        /* \"#utility.yul\":1798:1799   */\n      0x00\n        /* \"#utility.yul\":1795:1796   */\n      0x00\n        /* \"#utility.yul\":1788:1800   */\n      revert\n        /* \"#utility.yul\":1739:1802   */\n    tag_88:\n        /* \"#utility.yul\":1686:1808   */\n      pop\n      jump\t// out\n        /* \"#utility.yul\":1814:1953   */\n    tag_53:\n        /* \"#utility.yul\":1860:1865   */\n      0x00\n        /* \"#utility.yul\":1898:1904   */\n      dup2\n        /* \"#utility.yul\":1885:1905   */\n      calldataload\n        /* \"#utility.yul\":1876:1905   */\n      swap1\n      pop\n        /* \"#utility.yul\":1914:1947   */\n      tag_90\n        /* \"#utility.yul\":1941:1946   */\n      dup2\n        /* \"#utility.yul\":1914:1947   */\n      tag_52\n      jump\t// in\n    tag_90:\n        /* \"#utility.yul\":1814:1953   */\n      swap3\n      swap2\n      pop\n      pop\n      jump\t// out\n        /* \"#utility.yul\":1959:2076   */\n    tag_54:\n        /* \"#utility.yul\":2068:2069   */\n      0x00\n        /* \"#utility.yul\":2065:2066   */\n      0x00\n        /* \"#utility.yul\":2058:2070   */\n      revert\n        /* \"#utility.yul\":2082:2199   */\n    tag_55:\n        /* \"#utility.yul\":2191:2192   */\n      0x00\n        /* \"#utility.yul\":2188:2189   */\n      0x00\n        /* \"#utility.yul\":2181:2193   */\n      revert\n        /* \"#utility.yul\":2205:2322   */\n    tag_56:\n        /* \"#utility.yul\":2314:2315   */\n      0x00\n        /* \"#utility.yul\":2311:2312   */\n      0x00\n        /* \"#utility.yul\":2304:2316   */\n      revert\n        /* \"#utility.yul\":2341:2893   */\n    tag_57:\n        /* \"#utility.yul\":2398:2406   */\n      0x00\n        /* \"#utility.yul\":2408:2414   */\n      0x00\n        /* \"#utility.yul\":2458:2461   */\n      dup4\n        /* \"#utility.yul\":2451:2455   */\n      0x1f\n        /* \"#utility.yul\":2443:2449   */\n      dup5\n        /* \"#utility.yul\":2439:2456   */\n      add\n        /* \"#utility.yul\":2435:2462   */\n      slt\n        /* \"#utility.yul\":2425:2547   */\n      tag_95\n      jumpi\n        /* \"#utility.yul\":2466:2545   */\n      tag_96\n      tag_54\n      jump\t// in\n    tag_96:\n        /* \"#utility.yul\":2425:2547   */\n    tag_95:\n        /* \"#utility.yul\":2579:2585   */\n      dup3\n        /* \"#utility.yul\":2566:2586   */\n      calldataload\n        /* \"#utility.yul\":2556:2586   */\n      swap1\n      pop\n        /* \"#utility.yul\":2609:2627   */\n      0xffffffffffffffff\n        /* \"#utility.yul\":2601:2607   */\n      dup2\n        /* \"#utility.yul\":2598:2628   */\n      gt\n        /* \"#utility.yul\":2595:2712   */\n      iszero\n      tag_97\n      jumpi\n        /* \"#utility.yul\":2631:2710   */\n      tag_98\n      tag_55\n      jump\t// in\n    tag_98:\n        /* \"#utility.yul\":2595:2712   */\n    tag_97:\n        /* \"#utility.yul\":2745:2749   */\n      0x20\n        /* \"#utility.yul\":2737:2743   */\n      dup4\n        /* \"#utility.yul\":2733:2750   */\n      add\n        /* \"#utility.yul\":2721:2750   */\n      swap2\n      pop\n        /* \"#utility.yul\":2799:2802   */\n      dup4\n        /* \"#utility.yul\":2791:2795   */\n      0x01\n        /* \"#utility.yul\":2783:2789   */\n      dup3\n        /* \"#utility.yul\":2779:2796   */\n      mul\n        /* \"#utility.yul\":2769:2777   */\n      dup4\n        /* \"#utility.yul\":2765:2797   */\n      add\n        /* \"#utility.yul\":2762:2803   */\n      gt\n        /* \"#utility.yul\":2759:2887   */\n      iszero\n      tag_99\n      jumpi\n        /* \"#utility.yul\":2806:2885   */\n      tag_100\n      tag_56\n      jump\t// in\n    tag_100:\n        /* \"#utility.yul\":2759:2887   */\n    tag_99:\n        /* \"#utility.yul\":2341:2893   */\n      swap3\n      pop\n      swap3\n      swap1\n      pop\n      jump\t// out\n        /* \"#utility.yul\":2899:3716   */\n    tag_18:\n        /* \"#utility.yul\":2987:2993   */\n      0x00\n        /* \"#utility.yul\":2995:3001   */\n      0x00\n        /* \"#utility.yul\":3003:3009   */\n      0x00\n        /* \"#utility.yul\":3011:3017   */\n      0x00\n        /* \"#utility.yul\":3060:3062   */\n      0x60\n        /* \"#utility.yul\":3048:3057   */\n      dup6\n        /* \"#utility.yul\":3039:3046   */\n      dup8\n        /* \"#utility.yul\":3035:3058   */\n      sub\n        /* \"#utility.yul\":3031:3063   */\n      slt\n        /* \"#utility.yul\":3028:3147   */\n      iszero\n      tag_102\n      jumpi\n        /* \"#utility.yul\":3066:3145   */\n      tag_103\n      tag_43\n      jump\t// in\n    tag_103:\n        /* \"#utility.yul\":3028:3147   */\n    tag_102:\n        /* \"#utility.yul\":3186:3187   */\n      0x00\n        /* \"#utility.yul\":3211:3264   */\n      tag_104\n        /* \"#utility.yul\":3256:3263   */\n      dup8\n        /* \"#utility.yul\":3247:3253   */\n      dup3\n        /* \"#utility.yul\":3236:3245   */\n      dup9\n        /* \"#utility.yul\":3232:3254   */\n      add\n        /* \"#utility.yul\":3211:3264   */\n      tag_48\n      jump\t// in\n    tag_104:\n        /* \"#utility.yul\":3201:3264   */\n      swap5\n      pop\n        /* \"#utility.yul\":3157:3274   */\n      pop\n        /* \"#utility.yul\":3313:3315   */\n      0x20\n        /* \"#utility.yul\":3339:3392   */\n      tag_105\n        /* \"#utility.yul\":3384:3391   */\n      dup8\n        /* \"#utility.yul\":3375:3381   */\n      dup3\n        /* \"#utility.yul\":3364:3373   */\n      dup9\n        /* \"#utility.yul\":3360:3382   */\n      add\n        /* \"#utility.yul\":3339:3392   */\n      tag_53\n      jump\t// in\n    tag_105:\n        /* \"#utility.yul\":3329:3392   */\n      swap4\n      pop\n        /* \"#utility.yul\":3284:3402   */\n      pop\n        /* \"#utility.yul\":3469:3471   */\n      0x40\n        /* \"#utility.yul\":3458:3467   */\n      dup6\n        /* \"#utility.yul\":3454:3472   */\n      add\n        /* \"#utility.yul\":3441:3473   */\n      calldataload\n        /* \"#utility.yul\":3500:3518   */\n      0xffffffffffffffff\n        /* \"#utility.yul\":3492:3498   */\n      dup2\n        /* \"#utility.yul\":3489:3519   */\n      gt\n        /* \"#utility.yul\":3486:3603   */\n      iszero\n      tag_106\n      jumpi\n        /* \"#utility.yul\":3522:3601   */\n      tag_107\n      tag_44\n      jump\t// in\n    tag_107:\n        /* \"#utility.yul\":3486:3603   */\n    tag_106:\n        /* \"#utility.yul\":3635:3699   */\n      tag_108\n        /* \"#utility.yul\":3691:3698   */\n      dup8\n        /* \"#utility.yul\":3682:3688   */\n      dup3\n        /* \"#utility.yul\":3671:3680   */\n      dup9\n        /* \"#utility.yul\":3667:3689   */\n      add\n        /* \"#utility.yul\":3635:3699   */\n      tag_57\n      jump\t// in\n    tag_108:\n        /* \"#utility.yul\":3617:3699   */\n      swap3\n      pop\n      swap3\n      pop\n        /* \"#utility.yul\":3412:3709   */\n      pop\n        /* \"#utility.yul\":2899:3716   */\n      swap3\n      swap6\n      swap2\n      swap5\n      pop\n      swap3\n      pop\n      jump\t// out\n        /* \"#utility.yul\":3722:3891   */\n    tag_58:\n        /* \"#utility.yul\":3806:3817   */\n      0x00\n        /* \"#utility.yul\":3840:3846   */\n      dup3\n        /* \"#utility.yul\":3835:3838   */\n      dup3\n        /* \"#utility.yul\":3828:3847   */\n      mstore\n        /* \"#utility.yul\":3880:3884   */\n      0x20\n        /* \"#utility.yul\":3875:3878   */\n      dup3\n        /* \"#utility.yul\":3871:3885   */\n      add\n        /* \"#utility.yul\":3856:3885   */\n      swap1\n      pop\n        /* \"#utility.yul\":3722:3891   */\n      swap3\n      swap2\n      pop\n      pop\n      jump\t// out\n        /* \"#utility.yul\":3897:4061   */\n    tag_59:\n        /* \"#utility.yul\":4037:4053   */\n      0x4e6f7420617574686f72697a6564000000000000000000000000000000000000\n        /* \"#utility.yul\":4033:4034   */\n      0x00\n        /* \"#utility.yul\":4025:4031   */\n      dup3\n        /* \"#utility.yul\":4021:4035   */\n      add\n        /* \"#utility.yul\":4014:4054   */\n      mstore\n        /* \"#utility.yul\":3897:4061   */\n      pop\n      jump\t// out\n        /* \"#utility.yul\":4067:4433   */\n    tag_60:\n        /* \"#utility.yul\":4209:4212   */\n      0x00\n        /* \"#utility.yul\":4230:4297   */\n      tag_112\n        /* \"#utility.yul\":4294:4296   */\n      0x0e\n        /* \"#utility.yul\":4289:4292   */\n      dup4\n        /* \"#utility.yul\":4230:4297   */\n      tag_58\n      jump\t// in\n    tag_112:\n        /* \"#utility.yul\":4223:4297   */\n      swap2\n      pop\n        /* \"#utility.yul\":4306:4399   */\n      tag_113\n        /* \"#utility.yul\":4395:4398   */\n      dup3\n        /* \"#utility.yul\":4306:4399   */\n      tag_59\n      jump\t// in\n    tag_113:\n        /* \"#utility.yul\":4424:4426   */\n      0x20\n        /* \"#utility.yul\":4419:4422   */\n      dup3\n        /* \"#utility.yul\":4415:4427   */\n      add\n        /* \"#utility.yul\":4408:4427   */\n      swap1\n      pop\n        /* \"#utility.yul\":4067:4433   */\n      swap2\n      swap1\n      pop\n      jump\t// out\n        /* \"#utility.yul\":4439:4858   */\n    tag_26:\n        /* \"#utility.yul\":4605:4609   */\n      0x00\n        /* \"#utility.yul\":4643:4645   */\n      0x20\n        /* \"#utility.yul\":4632:4641   */\n      dup3\n        /* \"#utility.yul\":4628:4646   */\n      add\n        /* \"#utility.yul\":4620:4646   */\n      swap1\n      pop\n        /* \"#utility.yul\":4692:4701   */\n      dup2\n        /* \"#utility.yul\":4686:4690   */\n      dup2\n        /* \"#utility.yul\":4682:4702   */\n      sub\n        /* \"#utility.yul\":4678:4679   */\n      0x00\n        /* \"#utility.yul\":4667:4676   */\n      dup4\n        /* \"#utility.yul\":4663:4680   */\n      add\n        /* \"#utility.yul\":4656:4703   */\n      mstore\n        /* \"#utility.yul\":4720:4851   */\n      tag_115\n        /* \"#utility.yul\":4846:4850   */\n      dup2\n        /* \"#utility.yul\":4720:4851   */\n      tag_60\n      jump\t// in\n    tag_115:\n        /* \"#utility.yul\":4712:4851   */\n      swap1\n      pop\n        /* \"#utility.yul\":4439:4858   */\n      swap2\n      swap1\n      pop\n      jump\t// out\n        /* \"#utility.yul\":4864:5011   */\n    tag_61:\n        /* \"#utility.yul\":4965:4976   */\n      0x00\n        /* \"#utility.yul\":5002:5005   */\n      dup2\n        /* \"#utility.yul\":4987:5005   */\n      swap1\n      pop\n        /* \"#utility.yul\":4864:5011   */\n      swap3\n      swap2\n      pop\n      pop\n      jump\t// out\n        /* \"#utility.yul\":5017:5165   */\n    tag_62:\n        /* \"#utility.yul\":5115:5121   */\n      dup3\n        /* \"#utility.yul\":5110:5113   */\n      dup2\n        /* \"#utility.yul\":5105:5108   */\n      dup4\n        /* \"#utility.yul\":5092:5122   */\n      calldatacopy\n        /* \"#utility.yul\":5156:5157   */\n      0x00\n        /* \"#utility.yul\":5147:5153   */\n      dup4\n        /* \"#utility.yul\":5142:5145   */\n      dup4\n        /* \"#utility.yul\":5138:5154   */\n      add\n        /* \"#utility.yul\":5131:5158   */\n      mstore\n        /* \"#utility.yul\":5017:5165   */\n      pop\n      pop\n      pop\n      jump\t// out\n        /* \"#utility.yul\":5193:5520   */\n    tag_63:\n        /* \"#utility.yul\":5307:5310   */\n      0x00\n        /* \"#utility.yul\":5328:5416   */\n      tag_119\n        /* \"#utility.yul\":5409:5415   */\n      dup4\n        /* \"#utility.yul\":5404:5407   */\n      dup6\n        /* \"#utility.yul\":5328:5416   */\n      tag_61\n      jump\t// in\n    tag_119:\n        /* \"#utility.yul\":5321:5416   */\n      swap4\n      pop\n        /* \"#utility.yul\":5426:5482   */\n      tag_120\n        /* \"#utility.yul\":5475:5481   */\n      dup4\n        /* \"#utility.yul\":5470:5473   */\n      dup6\n        /* \"#utility.yul\":5463:5468   */\n      dup5\n        /* \"#utility.yul\":5426:5482   */\n      tag_62\n      jump\t// in\n    tag_120:\n        /* \"#utility.yul\":5507:5513   */\n      dup3\n        /* \"#utility.yul\":5502:5505   */\n      dup5\n        /* \"#utility.yul\":5498:5514   */\n      add\n        /* \"#utility.yul\":5491:5514   */\n      swap1\n      pop\n        /* \"#utility.yul\":5193:5520   */\n      swap4\n      swap3\n      pop\n      pop\n      pop\n      jump\t// out\n        /* \"#utility.yul\":5526:5817   */\n    tag_33:\n        /* \"#utility.yul\":5666:5669   */\n      0x00\n        /* \"#utility.yul\":5688:5791   */\n      tag_122\n        /* \"#utility.yul\":5787:5790   */\n      dup3\n        /* \"#utility.yul\":5778:5784   */\n      dup5\n        /* \"#utility.yul\":5770:5776   */\n      dup7\n        /* \"#utility.yul\":5688:5791   */\n      tag_63\n      jump\t// in\n    tag_122:\n        /* \"#utility.yul\":5681:5791   */\n      swap2\n      pop\n        /* \"#utility.yul\":5808:5811   */\n      dup2\n        /* \"#utility.yul\":5801:5811   */\n      swap1\n      pop\n        /* \"#utility.yul\":5526:5817   */\n      swap4\n      swap3\n      pop\n      pop\n      pop\n      jump\t// out\n\n    auxdata: 0xa2646970667358221220d3581226c2f4bbeb58f4f10d1fdc54d1a8be60117633eb5fe2afe971d031096d64736f6c634300081f0033\n}\n",
				"bytecode": {
					"linkReferences": {},
					"object": "6080604052348015600e575f5ffd5b506106768061001c5f395ff3fe608060405234801561000f575f5ffd5b506004361061004a575f3560e01c80630e316ab71461004e578063736c0d5b1461006a578063b61d27f61461009a578063eb12d61e146100b6575b5f5ffd5b61006860048036038101906100639190610411565b6100d2565b005b610084600480360381019061007f9190610411565b6101b0565b6040516100919190610456565b60405180910390f35b6100b460048036038101906100af9190610503565b6101cc565b005b6100d060048036038101906100cb9190610411565b6102d0565b005b5f5f3373ffffffffffffffffffffffffffffffffffffffff1673ffffffffffffffffffffffffffffffffffffffff1681526020019081526020015f205f9054906101000a900460ff1661015a576040517f08c379a0000000000000000000000000000000000000000000000000000000008152600401610151906105ce565b60405180910390fd5b5f5f5f8373ffffffffffffffffffffffffffffffffffffffff1673ffffffffffffffffffffffffffffffffffffffff1681526020019081526020015f205f6101000a81548160ff02191690831515021790555050565b5f602052805f5260405f205f915054906101000a900460ff1681565b5f5f3373ffffffffffffffffffffffffffffffffffffffff1673ffffffffffffffffffffffffffffffffffffffff1681526020019081526020015f205f9054906101000a900460ff16610254576040517f08c379a000000000000000000000000000000000000000000000000000000000815260040161024b906105ce565b60405180910390fd5b5f8473ffffffffffffffffffffffffffffffffffffffff1684848460405161027d929190610628565b5f6040518083038185875af1925050503d805f81146102b7576040519150601f19603f3d011682016040523d82523d5f602084013e6102bc565b606091505b50509050806102c9575f5ffd5b5050505050565b5f5f3373ffffffffffffffffffffffffffffffffffffffff1673ffffffffffffffffffffffffffffffffffffffff1681526020019081526020015f205f9054906101000a900460ff16610358576040517f08c379a000000000000000000000000000000000000000000000000000000000815260040161034f906105ce565b60405180910390fd5b60015f5f8373ffffffffffffffffffffffffffffffffffffffff1673ffffffffffffffffffffffffffffffffffffffff1681526020019081526020015f205f6101000a81548160ff02191690831515021790555050565b5f5ffd5b5f5ffd5b5f73ffffffffffffffffffffffffffffffffffffffff82169050919050565b5f6103e0826103b7565b9050919050565b6103f0816103d6565b81146103fa575f5ffd5b50565b5f8135905061040b816103e7565b92915050565b5f60208284031215610426576104256103af565b5b5f610433848285016103fd565b91505092915050565b5f8115159050919050565b6104508161043c565b82525050565b5f6020820190506104695f830184610447565b92915050565b5f819050919050565b6104818161046f565b811461048b575f5ffd5b50565b5f8135905061049c81610478565b92915050565b5f5ffd5b5f5ffd5b5f5ffd5b5f5f83601f8401126104c3576104c26104a2565b5b8235905067ffffffffffffffff8111156104e0576104df6104a6565b5b6020830191508360018202830111156104fc576104fb6104aa565b5b9250929050565b5f5f5f5f6060858703121561051b5761051a6103af565b5b5f610528878288016103fd565b94505060206105398782880161048e565b935050604085013567ffffffffffffffff81111561055a576105596103b3565b5b610566878288016104ae565b925092505092959194509250565b5f82825260208201905092915050565b7f4e6f7420617574686f72697a65640000000000000000000000000000000000005f82015250565b5f6105b8600e83610574565b91506105c382610584565b602082019050919050565b5f6020820190508181035f8301526105e5816105ac565b9050919050565b5f81905092915050565b828183375f83830152505050565b5f61060f83856105ec565b935061061c8385846105f6565b82840190509392505050565b5f610634828486610604565b9150819050939250505056fea2646970667358221220d3581226c2f4bbeb58f4f10d1fdc54d1a8be60117633eb5fe2afe971d031096d64736f6c634300081f0033",
					"opcodes": "PUSH1 0x80 PUSH1 0x40 MSTORE CALLVALUE DUP1 ISZERO PUSH1 0xE JUMPI PUSH0 PUSH0 REVERT JUMPDEST POP PUSH2 0x676 DUP1 PUSH2 0x1C PUSH0 CODECOPY PUSH0 RETURN INVALID PUSH1 0x80 PUSH1 0x40 MSTORE CALLVALUE DUP1 ISZERO PUSH2 0xF JUMPI PUSH0 PUSH0 REVERT JUMPDEST POP PUSH1 0x4 CALLDATASIZE LT PUSH2 0x4A JUMPI PUSH0 CALLDATALOAD PUSH1 0xE0 SHR DUP1 PUSH4 0xE316AB7 EQ PUSH2 0x4E JUMPI DUP1 PUSH4 0x736C0D5B EQ PUSH2 0x6A JUMPI DUP1 PUSH4 0xB61D27F6 EQ PUSH2 0x9A JUMPI DUP1 PUSH4 0xEB12D61E EQ PUSH2 0xB6 JUMPI JUMPDEST PUSH0 PUSH0 REVERT JUMPDEST PUSH2 0x68 PUSH1 0x4 DUP1 CALLDATASIZE SUB DUP2 ADD SWAP1 PUSH2 0x63 SWAP2 SWAP1 PUSH2 0x411 JUMP JUMPDEST PUSH2 0xD2 JUMP JUMPDEST STOP JUMPDEST PUSH2 0x84 PUSH1 0x4 DUP1 CALLDATASIZE SUB DUP2 ADD SWAP1 PUSH2 0x7F SWAP2 SWAP1 PUSH2 0x411 JUMP JUMPDEST PUSH2 0x1B0 JUMP JUMPDEST PUSH1 0x40 MLOAD PUSH2 0x91 SWAP2 SWAP1 PUSH2 0x456 JUMP JUMPDEST PUSH1 0x40 MLOAD DUP1 SWAP2 SUB SWAP1 RETURN JUMPDEST PUSH2 0xB4 PUSH1 0x4 DUP1 CALLDATASIZE SUB DUP2 ADD SWAP1 PUSH2 0xAF SWAP2 SWAP1 PUSH2 0x503 JUMP JUMPDEST PUSH2 0x1CC JUMP JUMPDEST STOP JUMPDEST PUSH2 0xD0 PUSH1 0x4 DUP1 CALLDATASIZE SUB DUP2 ADD SWAP1 PUSH2 0xCB SWAP2 SWAP1 PUSH2 0x411 JUMP JUMPDEST PUSH2 0x2D0 JUMP JUMPDEST STOP JUMPDEST PUSH0 PUSH0 CALLER PUSH20 0xFFFFFFFFFFFFFFFFFFFFFFFFFFFFFFFFFFFFFFFF AND PUSH20 0xFFFFFFFFFFFFFFFFFFFFFFFFFFFFFFFFFFFFFFFF AND DUP2 MSTORE PUSH1 0x20 ADD SWAP1 DUP2 MSTORE PUSH1 0x20 ADD PUSH0 KECCAK256 PUSH0 SWAP1 SLOAD SWAP1 PUSH2 0x100 EXP SWAP1 DIV PUSH1 0xFF AND PUSH2 0x15A JUMPI PUSH1 0x40 MLOAD PUSH32 0x8C379A000000000000000000000000000000000000000000000000000000000 DUP2 MSTORE PUSH1 0x4 ADD PUSH2 0x151 SWAP1 PUSH2 0x5CE JUMP JUMPDEST PUSH1 0x40 MLOAD DUP1 SWAP2 SUB SWAP1 REVERT JUMPDEST PUSH0 PUSH0 PUSH0 DUP4 PUSH20 0xFFFFFFFFFFFFFFFFFFFFFFFFFFFFFFFFFFFFFFFF AND PUSH20 0xFFFFFFFFFFFFFFFFFFFFFFFFFFFFFFFFFFFFFFFF AND DUP2 MSTORE PUSH1 0x20 ADD SWAP1 DUP2 MSTORE PUSH1 0x20 ADD PUSH0 KECCAK256 PUSH0 PUSH2 0x100 EXP DUP2 SLOAD DUP2 PUSH1 0xFF MUL NOT AND SWAP1 DUP4 ISZERO ISZERO MUL OR SWAP1 SSTORE POP POP JUMP JUMPDEST PUSH0 PUSH1 0x20 MSTORE DUP1 PUSH0 MSTORE PUSH1 0x40 PUSH0 KECCAK256 PUSH0 SWAP2 POP SLOAD SWAP1 PUSH2 0x100 EXP SWAP1 DIV PUSH1 0xFF AND DUP2 JUMP JUMPDEST PUSH0 PUSH0 CALLER PUSH20 0xFFFFFFFFFFFFFFFFFFFFFFFFFFFFFFFFFFFFFFFF AND PUSH20 0xFFFFFFFFFFFFFFFFFFFFFFFFFFFFFFFFFFFFFFFF AND DUP2 MSTORE PUSH1 0x20 ADD SWAP1 DUP2 MSTORE PUSH1 0x20 ADD PUSH0 KECCAK256 PUSH0 SWAP1 SLOAD SWAP1 PUSH2 0x100 EXP SWAP1 DIV PUSH1 0xFF AND PUSH2 0x254 JUMPI PUSH1 0x40 MLOAD PUSH32 0x8C379A000000000000000000000000000000000000000000000000000000000 DUP2 MSTORE PUSH1 0x4 ADD PUSH2 0x24B SWAP1 PUSH2 0x5CE JUMP JUMPDEST PUSH1 0x40 MLOAD DUP1 SWAP2 SUB SWAP1 REVERT JUMPDEST PUSH0 DUP5 PUSH20 0xFFFFFFFFFFFFFFFFFFFFFFFFFFFFFFFFFFFFFFFF AND DUP5 DUP5 DUP5 PUSH1 0x40 MLOAD PUSH2 0x27D SWAP3 SWAP2 SWAP1 PUSH2 0x628 JUMP JUMPDEST PUSH0 PUSH1 0x40 MLOAD DUP1 DUP4 SUB DUP2 DUP6 DUP8 GAS CALL SWAP3 POP POP POP RETURNDATASIZE DUP1 PUSH0 DUP2 EQ PUSH2 0x2B7 JUMPI PUSH1 0x40 MLOAD SWAP2 POP PUSH1 0x1F NOT PUSH1 0x3F RETURNDATASIZE ADD AND DUP3 ADD PUSH1 0x40 MSTORE RETURNDATASIZE DUP3 MSTORE RETURNDATASIZE PUSH0 PUSH1 0x20 DUP5 ADD RETURNDATACOPY PUSH2 0x2BC JUMP JUMPDEST PUSH1 0x60 SWAP2 POP JUMPDEST POP POP SWAP1 POP DUP1 PUSH2 0x2C9 JUMPI PUSH0 PUSH0 REVERT JUMPDEST POP POP POP POP POP JUMP JUMPDEST PUSH0 PUSH0 CALLER PUSH20 0xFFFFFFFFFFFFFFFFFFFFFFFFFFFFFFFFFFFFFFFF AND PUSH20 0xFFFFFFFFFFFFFFFFFFFFFFFFFFFFFFFFFFFFFFFF AND DUP2 MSTORE PUSH1 0x20 ADD SWAP1 DUP2 MSTORE PUSH1 0x20 ADD PUSH0 KECCAK256 PUSH0 SWAP1 SLOAD SWAP1 PUSH2 0x100 EXP SWAP1 DIV PUSH1 0xFF AND PUSH2 0x358 JUMPI PUSH1 0x40 MLOAD PUSH32 0x8C379A000000000000000000000000000000000000000000000000000000000 DUP2 MSTORE PUSH1 0x4 ADD PUSH2 0x34F SWAP1 PUSH2 0x5CE JUMP JUMPDEST PUSH1 0x40 MLOAD DUP1 SWAP2 SUB SWAP1 REVERT JUMPDEST PUSH1 0x1 PUSH0 PUSH0 DUP4 PUSH20 0xFFFFFFFFFFFFFFFFFFFFFFFFFFFFFFFFFFFFFFFF AND PUSH20 0xFFFFFFFFFFFFFFFFFFFFFFFFFFFFFFFFFFFFFFFF AND DUP2 MSTORE PUSH1 0x20 ADD SWAP1 DUP2 MSTORE PUSH1 0x20 ADD PUSH0 KECCAK256 PUSH0 PUSH2 0x100 EXP DUP2 SLOAD DUP2 PUSH1 0xFF MUL NOT AND SWAP1 DUP4 ISZERO ISZERO MUL OR SWAP1 SSTORE POP POP JUMP JUMPDEST PUSH0 PUSH0 REVERT JUMPDEST PUSH0 PUSH0 REVERT JUMPDEST PUSH0 PUSH20 0xFFFFFFFFFFFFFFFFFFFFFFFFFFFFFFFFFFFFFFFF DUP3 AND SWAP1 POP SWAP2 SWAP1 POP JUMP JUMPDEST PUSH0 PUSH2 0x3E0 DUP3 PUSH2 0x3B7 JUMP JUMPDEST SWAP1 POP SWAP2 SWAP1 POP JUMP JUMPDEST PUSH2 0x3F0 DUP2 PUSH2 0x3D6 JUMP JUMPDEST DUP2 EQ PUSH2 0x3FA JUMPI PUSH0 PUSH0 REVERT JUMPDEST POP JUMP JUMPDEST PUSH0 DUP2 CALLDATALOAD SWAP1 POP PUSH2 0x40B DUP2 PUSH2 0x3E7 JUMP JUMPDEST SWAP3 SWAP2 POP POP JUMP JUMPDEST PUSH0 PUSH1 0x20 DUP3 DUP5 SUB SLT ISZERO PUSH2 0x426 JUMPI PUSH2 0x425 PUSH2 0x3AF JUMP JUMPDEST JUMPDEST PUSH0 PUSH2 0x433 DUP5 DUP3 DUP6 ADD PUSH2 0x3FD JUMP JUMPDEST SWAP2 POP POP SWAP3 SWAP2 POP POP JUMP JUMPDEST PUSH0 DUP2 ISZERO ISZERO SWAP1 POP SWAP2 SWAP1 POP JUMP JUMPDEST PUSH2 0x450 DUP2 PUSH2 0x43C JUMP JUMPDEST DUP3 MSTORE POP POP JUMP JUMPDEST PUSH0 PUSH1 0x20 DUP3 ADD SWAP1 POP PUSH2 0x469 PUSH0 DUP4 ADD DUP5 PUSH2 0x447 JUMP JUMPDEST SWAP3 SWAP2 POP POP JUMP JUMPDEST PUSH0 DUP2 SWAP1 POP SWAP2 SWAP1 POP JUMP JUMPDEST PUSH2 0x481 DUP2 PUSH2 0x46F JUMP JUMPDEST DUP2 EQ PUSH2 0x48B JUMPI PUSH0 PUSH0 REVERT JUMPDEST POP JUMP JUMPDEST PUSH0 DUP2 CALLDATALOAD SWAP1 POP PUSH2 0x49C DUP2 PUSH2 0x478 JUMP JUMPDEST SWAP3 SWAP2 POP POP JUMP JUMPDEST PUSH0 PUSH0 REVERT JUMPDEST PUSH0 PUSH0 REVERT JUMPDEST PUSH0 PUSH0 REVERT JUMPDEST PUSH0 PUSH0 DUP4 PUSH1 0x1F DUP5 ADD SLT PUSH2 0x4C3 JUMPI PUSH2 0x4C2 PUSH2 0x4A2 JUMP JUMPDEST JUMPDEST DUP3 CALLDATALOAD SWAP1 POP PUSH8 0xFFFFFFFFFFFFFFFF DUP2 GT ISZERO PUSH2 0x4E0 JUMPI PUSH2 0x4DF PUSH2 0x4A6 JUMP JUMPDEST JUMPDEST PUSH1 0x20 DUP4 ADD SWAP2 POP DUP4 PUSH1 0x1 DUP3 MUL DUP4 ADD GT ISZERO PUSH2 0x4FC JUMPI PUSH2 0x4FB PUSH2 0x4AA JUMP JUMPDEST JUMPDEST SWAP3 POP SWAP3 SWAP1 POP JUMP JUMPDEST PUSH0 PUSH0 PUSH0 PUSH0 PUSH1 0x60 DUP6 DUP8 SUB SLT ISZERO PUSH2 0x51B JUMPI PUSH2 0x51A PUSH2 0x3AF JUMP JUMPDEST JUMPDEST PUSH0 PUSH2 0x528 DUP8 DUP3 DUP9 ADD PUSH2 0x3FD JUMP JUMPDEST SWAP5 POP POP PUSH1 0x20 PUSH2 0x539 DUP8 DUP3 DUP9 ADD PUSH2 0x48E JUMP JUMPDEST SWAP4 POP POP PUSH1 0x40 DUP6 ADD CALLDATALOAD PUSH8 0xFFFFFFFFFFFFFFFF DUP2 GT ISZERO PUSH2 0x55A JUMPI PUSH2 0x559 PUSH2 0x3B3 JUMP JUMPDEST JUMPDEST PUSH2 0x566 DUP8 DUP3 DUP9 ADD PUSH2 0x4AE JUMP JUMPDEST SWAP3 POP SWAP3 POP POP SWAP3 SWAP6 SWAP2 SWAP5 POP SWAP3 POP JUMP JUMPDEST PUSH0 DUP3 DUP3 MSTORE PUSH1 0x20 DUP3 ADD SWAP1 POP SWAP3 SWAP2 POP POP JUMP JUMPDEST PUSH32 0x4E6F7420617574686F72697A6564000000000000000000000000000000000000 PUSH0 DUP3 ADD MSTORE POP JUMP JUMPDEST PUSH0 PUSH2 0x5B8 PUSH1 0xE DUP4 PUSH2 0x574 JUMP JUMPDEST SWAP2 POP PUSH2 0x5C3 DUP3 PUSH2 0x584 JUMP JUMPDEST PUSH1 0x20 DUP3 ADD SWAP1 POP SWAP2 SWAP1 POP JUMP JUMPDEST PUSH0 PUSH1 0x20 DUP3 ADD SWAP1 POP DUP2 DUP2 SUB PUSH0 DUP4 ADD MSTORE PUSH2 0x5E5 DUP2 PUSH2 0x5AC JUMP JUMPDEST SWAP1 POP SWAP2 SWAP1 POP JUMP JUMPDEST PUSH0 DUP2 SWAP1 POP SWAP3 SWAP2 POP POP JUMP JUMPDEST DUP3 DUP2 DUP4 CALLDATACOPY PUSH0 DUP4 DUP4 ADD MSTORE POP POP POP JUMP JUMPDEST PUSH0 PUSH2 0x60F DUP4 DUP6 PUSH2 0x5EC JUMP JUMPDEST SWAP4 POP PUSH2 0x61C DUP4 DUP6 DUP5 PUSH2 0x5F6 JUMP JUMPDEST DUP3 DUP5 ADD SWAP1 POP SWAP4 SWAP3 POP POP POP JUMP JUMPDEST PUSH0 PUSH2 0x634 DUP3 DUP5 DUP7 PUSH2 0x604 JUMP JUMPDEST SWAP2 POP DUP2 SWAP1 POP SWAP4 SWAP3 POP POP POP JUMP INVALID LOG2 PUSH5 0x6970667358 0x22 SLT KECCAK256 0xD3 PC SLT 0x26 0xC2 DELEGATECALL 0xBB 0xEB PC DELEGATECALL CALL 0xD 0x1F 0xDC SLOAD DATALOADN 0xA8BE PUSH1 0x11 PUSH23 0x33EB5FE2AFE971D031096D64736F6C634300081F003300 "
				},
				"gasEstimates": {
					"creation": {
						"codeDepositCost": "330800",
						"executionCost": "366",
						"totalCost": "331166"
					},
					"external": {
						"addSigner(address)": "27084",
						"execute(address,uint256,bytes)": "infinite",
						"removeSigner(address)": "27017",
						"signers(address)": "2832"
					}
				},
				"methodIdentifiers": {
					"addSigner(address)": "eb12d61e",
					"execute(address,uint256,bytes)": "b61d27f6",
					"removeSigner(address)": "0e316ab7",
					"signers(address)": "736c0d5b"
				}
			},
			"storageLayout": {
				"storage": [
					{
						"astId": 5,
						"contract": "contracts/PetAccount.sol:PetAccount",
						"label": "signers",
						"offset": 0,
						"slot": "0",
						"type": "t_mapping(t_address,t_bool)"
					}
				],
				"types": {
					"t_address": {
						"encoding": "inplace",
						"label": "address",
						"numberOfBytes": "20"
					},
					"t_bool": {
						"encoding": "inplace",
						"label": "bool",
						"numberOfBytes": "1"
					},
					"t_mapping(t_address,t_bool)": {
						"encoding": "mapping",
						"key": "t_address",
						"label": "mapping(address => bool)",
						"numberOfBytes": "32",
						"value": "t_bool"
					}
				}
			},
			"userdoc": {
				"kind": "user",
				"methods": {},
				"version": 1
			}
		}
	}
}